:020000040800F2
:1000000030FD0120550300086D5900083D540008DB
:1000100069590008B91C0008B1760008000000000A
:10002000000000000000000000000000B1690008AE
:100030006D1F000800000000115F0008456A0008FD
:100040006F0300086F0300086F0300086F030008C8
:100050006F0300086F0300086F0300086F030008B8
:100060006F0300086F0300086F0300086F030008A8
:100070006F0300086F0300086F0300086F03000898
:100080006F0300086F0300086F0300086F03000888
:100090006F0300086F0300086F0300086F03000878
:1000A0006F0300086F0300086F0300086F03000868
:1000B0003D6B00086F0300086F0300086F03000822
:1000C0006F0300086F0300086F0300086F03000848
:1000D0006F0300085D7600086F0300086F030008D7
:1000E0006F0300086F0300086F0300086F03000828
:1000F0006F0300086F0300086F0300086F03000818
:100100006F0300086F0300086F0300086F03000807
:100110006F0300086F0300086F0300086F030008F7
:100120006F030008B51D0008C51D00086F03000817
:100130006F0300086F0300086F0300086F030008D7
:100140006F0300086F0300086F0300086F030008C7
:100150006F0300086F030008D51D00086F03000837
:100160006F0300086F0300086F0300086F030008A7
:100170006F0300086F0300086F0300080000000011
:100180006F0300086F0300086F0300086F03000887
:100190006F0300086F0300086F0300086F03000877
:1001A0006F0300086F030008A51D000800F002F8A7
:1001B00000F0C1F814A696E8000CB244B344DA4546
:1001C00001D100F0B8F8BAE80F000FA696E83000A9
:1001D000A5EB040504EB0607AAEB0704A7F101074A
:1001E0004FEA15154FEA3414A4F10104AC4201D3CF
:1001F00000F0A1F813F0010F18BFFB1A43F0010340
:1002000000F001F8DBE71847304D0300504D0300C4
:100210000A4410F8014B14F00F0508BF10F8015BF9
:10022000240908BF10F8014B6D1E05D010F8013BE2
:100230006D1E01F8013BF9D1641E03D0641E01F864
:10024000015BFBD19142E4D370470000704700008E
:100250000023002400250026103A28BF78C1FBD8CF
:10026000520728BF30C148BF0B6070476E2900F0AD
:100270003984702900F08785662921F05687652921
:1002800021F05387672921F05087612921F04F879A
:1002900003681B0A28BF41F08001692900F0E6834A
:1002A000642900F0E383752900F0E0836F2900F0F2
:1002B0001585782900F05385E92900F0AF84E429F9
:1002C00000F0AC84F52900F0A984EF2900F0128534
:1002D000F82900F052850368DB0928BF41F080014E
:1002E000632901F0B582732901F0BA82E32901F094
:1002F000C582F32901F0CA82002070471FB521F0A2
:1003000007FF9DE8030000F0C3FA01F06DFB040055
:100310000020002121F06EFA401C606000200021C6
:1003200021F052FAE06000F081FA1FBD10B5002004
:1003300001F0E9FA10BD01F029FB1146FFF7DEFFDD
:100340001CF026FB01F006FC03B4FFF7EFFF03BC33
:100350001BF0F4FD0948804709480047FEE7FEE727
:10036000FEE7FEE7FEE7FEE7FEE7FEE7FEE7FEE765
:1003700004480549054A064B70470000296B0008F0
:10038000AD01000830DD012030FD012030ED0120FD
:1003900030ED012070B5064600F05EFA056806F102
:1003A0000B0020F00704B4429CBF002070BD2B4618
:1003B0006A68BAB11068A04210D304F108018842FB
:1003C0003CBF5068586007D35168101941601168EC
:1003D000091B016058601460101D70BD13465268FF
:1003E000002AE7D12146284600F03EFA0028DED157
:1003F00070BD70B50446051F00F02EFA0068002C91
:1004000014BF446870BD002C18BFAC423CBF2046EE
:100410006468F8D301680A18AA4218BF456003D17E
:100420002A6805461144016028684119A1421CBF91
:100430006C6070BD6168696021680844286070BDA7
:1004400070B50D460646041F00F006FA0268BDB1FD
:10045000DEB105F10B0020F00701A9423CBF0020EE
:1004600070BD23688B4238BF506813D35A1A082ACC
:1004700036D3601840F8042B2160FFF7BAFF2FE055
:100480003046FFF7B6FF002070BD2846BDE870403B
:10049000FFF780BF002818BFA0423CBF024640685B
:1004A000F8D303EB040C84451CD1D0F800C063449E
:1004B000994217D8A3EB010CBCF1080F0DD3D0F86B
:1004C00004C06318C3F804C0D4F800C000686044D6
:1004D000401A18602160536002E023604068506059
:1004E000201D70BD2846FFF755FF050008D0314696
:1004F0002068021F284600F012F9201DFFF779FF3F
:10050000284670BD53EA020C00F069802DE9F04BDB
:100510004FF00006002B1FBFB3FA83F503FA05F472
:1005200024FA05F65E4012BF1643B2FA82F502FACB
:1005300005F4C5F120051EBF22FA05FC44EA0C04AF
:10054000203556EA044C4FEA144418BF641C4FF09F
:1005500000084FF00009904271EB030C39D30029D9
:1005600019BFB1FA81F701FA07F6B0FA80F700FA7D
:1005700007F6C7F120071EBF20FA07FC46EA0C0663
:100580002037B6FBF4FCA7EB0507103F07F01F0B65
:10059000CBF120062CFA06F60CFA0BFB44BFB3464F
:1005A0000026202FA4BF5E464FF0000B5BEA060C2E
:1005B00008BF4FF0010B19EB0B0948EB0608ABFB2A
:1005C000027C06FB02CC0BFB03CCC01B71EB0C01C5
:1005D000C1E70B46024641464846BDE8F08B13B5DD
:1005E000084318BF4FF0FF300146AFF30080BDE86D
:1005F0001C4070470FB4014610B504AA039800F0E0
:100600009DFA10BC5DF814FB0B460146184600F03D
:1006100094BC00000EB5054614460E4613A000F02B
:10062000A3FC284600F0A0FC16A000F09DFC30467C
:1006300000F09AFC15A000F097FC00218DF80B103B
:100640000A210DF10A008DF80A1008E094FBF1F27E
:1006500001FB124294FBF1F4303200F8012D002C22
:10066000F4DC00F081FC00F05DFC00002A2A2A2066
:10067000617373657274696F6E206661696C65641D
:100680003A2000002C2066696C6520002C206C69E3
:100690006E652000032A40F2308010F0030C00F059
:1006A000158011F8013BBCF1020F624498BF11F8AC
:1006B00001CB00F8013B38BF11F8013BA2F1040265
:1006C00098BF00F801CB38BF00F8013B11F00303DD
:1006D00000F02580083AC0F0088051F8043B083A41
:1006E00051F804CBA0E80810F5E7121D5CBF51F8E3
:1006F000043B40F8043BAFF30080D20724BF11F85D
:10070000013B11F801CB48BF11F8012B24BF00F8C1
:10071000013B00F801CB48BF00F8012B704710B532
:10072000203AC0F00B80B1E81850A0E81850B1E8AA
:100730001850A0E81850203ABFF4F5AF5FEA027CE9
:1007400024BFB1E81850A0E8185044BF18C918C019
:10075000BDE810405FEA827C24BF51F8043B40F8BA
:10076000043B08BF7047D20728BF31F8023B48BF9F
:1007700011F8012B28BF20F8023B48BF00F8012BDD
:10078000704702F0FF0343EA032242EA024200F00C
:1007900024B84FF000020429C0F0128010F0030CBE
:1007A00000F01B80CCF1040CBCF1020F18BF00F864
:1007B000012BA8BF20F8022BA1EB0C0100F00DB813
:1007C0005FEAC17C24BF00F8012B00F8012B48BF71
:1007D00000F8012B70474FF0000200B51346944615
:1007E0009646203922BFA0E80C50A0E80C50B1F189
:1007F0002001BFF4F7AF090728BFA0E80C5048BF9D
:100800000CC05DF804EB890028BF40F8042B08BF3A
:10081000704748BF20F8022B11F0804F18BF00F836
:10082000012B7047704770477047000008487CB53F
:100830007844009007487844009C0546019004E005
:100840002046016808448047241DAC42F8D17CBD95
:100850004C4A0300524A03000048704768020020D7
:10086000704770477047704738B504460A46002005
:100870006946AFF30080002808BF38BD02460099E2
:10088000204600F097FB012038BD012001F063B83D
:10089000F8B5AFF30080054600200C460C2000BFE1
:1008A0000646A819A0420DD9324669460020AFF38A
:1008B0000080070008BF01F04EF80098A04218BF62
:1008C0000546C419FFF7C8FF05600746F01D20F074
:1008D00007004619284600F00AF8B44208BFF8BDE0
:1008E000A21B31463868BDE8F84000F063BB002128
:1008F0000160416070470C2070472DE9F047914638
:100900000C468046FFF7A8FF0768604234EA000003
:1009100001D1042C02D20520BDE8F087601E40F012
:10092000070609F10B0020F007054D4539D93B4674
:100930007A6882B31468101D404206EA000C6445D0
:1009400025D9A4EB0C00854221D8BCF1000F0BD0B7
:10095000104601686244A1EB0C01116041685160CE
:10096000C0F800C058600346116805F108008142D4
:1009700005D35019491B016015605860034652F8B1
:10098000040F58600020C8F80020BDE8F087134627
:100990005268002ACED129463846FFF765FF002865
:1009A000C5D10620BDE8F08770B5044685690068AA
:1009B000C10601D5302600E02026C00707D070BD53
:1009C000D4E9012130469047206A401C20626D1E08
:1009D000F6D570BD70B5044685690078C00707D1AB
:1009E00070BDD4E9012120209047206A401C20627C
:1009F0006D1EF6D570BD09684A0501D540B2704735
:100A0000C905FCD500B2704709684A0501D5C0B2D6
:100A10007047C905FCD580B2704770B50C460546D5
:100A2000012A05D02878800600D5EA69002302E073
:100A3000012305E05B1C934202D2E05C0028F9D15F
:100A4000A869E618C01AA861286A184428622846CE
:100A5000FFF7AAFF04E0D5E9012114F8010B904744
:100A6000B442F8D32846FFF7B5FF70BD2DE9F04139
:100A70000646002410687529314616A510D0FFF7E8
:100A8000BAFF002802DA404213A507E031688A075E
:100A900001D512A502E0490704D511A5012401E002
:100AA000FFF7B2FF00210A2206F1240709E0B0FB9C
:100AB000F2FCB0FBF2F302FB1C0030307854184615
:100AC000491C0028F3D123462A463046BDE8F041B0
:100AD00000F0CFBA000000002D0000002B00000045
:100AE0002000000011680268006A530501D50870F3
:100AF0000AE0D30501D5088006E0130603D5C21726
:100B0000C1E9000200E008600120704701694A1C49
:100B100002610878704700B58FB0CDE9013100213E
:100B2000059105497944CDE903101146684600F066
:100B300035F90FB000BD0000E5FFFFFF074B70B5B2
:100B40000D467B44FFF7E7FF0446284600F0A2FE6F
:100B500010B14FF0FF3070BD204670BDD7B7010017
:100B60002DE9FF5F15468A460446DFF8AC80F8445D
:100B70000027D8E900103E46CDE9001010E05AF8F1
:100B800026106A4602A800F09AFE411C07D0217880
:100B9000890603D5E269391891420DD80744761CBD
:100BA0002078800602D5E069B84205DDAE42E6DB7A
:100BB0005AF826000028E2D1A069C01BA061204697
:100BC000FFF7F2FED8E90010CDE90010002017E091
:100BD0005AF828106A4602A800F071FEB0F1FF3FF3
:100BE00081460BD000250DF1080B05E0D4E9012169
:100BF0001BF8050090476D1C4D45F7D308F1010027
:100C0000B0428046E4DB206A384420622046FFF789
:100C1000E1FEBDE8FF9F0000521B02002DE9F041FC
:100C20008046D21D22F007020025D2E90002F529F4
:100C300015A614D0011E72F1000106DA0023D0EBD4
:100C4000030063EB020211A608E0D8F800108B073E
:100C500001D50FA602E0490701D50EA601251146D0
:100C6000002408F1240704E000F0BEF930323A55C0
:100C7000641C50EA0102F7D12B4632462146404619
:100C8000BDE8F04100F0F5B9000000002D000000C3
:100C90002B0000002000000030B4002100F12404EB
:100CA00008E002F00705D208303542EA4372DB085B
:100CB0006554491C52EA0305F3D10468002310A2CD
:100CC000250708D504F020040C4304D0C46901238F
:100CD0000CA2641EC46130BC00F0CBB910B5044650
:100CE00021461068FFF790FE02462046BDE81040FE
:100CF0000023D1E7D21D22F00701D1E90023CBE781
:100D00000000000030000000F0B40D460188090525
:100D100002D5214C7C4402E01F4C7C440E3400215F
:100D200000F1240608E002F00F071209E75D42EA2D
:100D300003721B097754491C52EA0307F3D1027866
:100D40000023120704D5702D06D009B102231134F7
:100D50002246F0BC00F08DB901231034F8E770B5DD
:100D600004460D4621461068FFF74EFE024629460E
:100D70002046BDE870400023C6E7D21D22F00703DD
:100D8000D3E90023C0E70368126843F0200303603F
:100D90000823C3610023B7E7B41902002DE9F05F0F
:100DA000894604464FF0000ADFF874B1FB44C0F8EE
:100DB00020A02046E1688847002874D0252806D066
:100DC000D4E901219047206A401C2062F1E7002607
:100DD0005F462046E16888472028054607DB312D1D
:100DE00005D2781910F8200C08B10643F1E7B007D6
:100DF00001D526F00406C4F81CA00027C4F818A0EA
:100E00002A2D09D0284620F0D7FC38B304EB8708F8
:100E1000303DC8F8185019E059F8041B204604EB7F
:100E200087029161E1688847012F054618D1E06982
:100E3000002820DA26F020061DE0D8F8180000EB84
:100E4000800005EB40003038C8F818002046E16803
:100E50008847054620F0B0FC0028EED1012F0AD0CB
:100E60002E2D08D12046E16888477F1C0546022FB9
:100E700046F02006C4DBA069002803DA404246F0B1
:100E80000106A061F00701D026F010066C2D0BD0F2
:100E9000682D09D04C2D39D06A2D35D0742D35D020
:100EA0007A2D33D016E038E0E1682F462046884797
:100EB000B842054609D16C2F26D04FF48060E16816
:100EC000064320468847054604E06C2F1AD04FF4AD
:100ED000807006430DB3A5F14100192802D82035D2
:100EE00046F400664A462946204626604E46FFF7ED
:100EF000BDF980B101280BD0F61D26F0070000F1E6
:100F0000080956E74020E4E78020D8E70020D6E72C
:100F100006F104094DE7284652E7206ABDE8F09F34
:100F20004419020010B5002000F00EFDFFF7FEF995
:100F3000BDE8104001201BF001B82DE9F041074643
:100F400015460E461020FFF725FA04000AD0676008
:100F5000C4E9026500F02AF80168216004600020FD
:100F6000BDE8F0810120FBE7014900F097BC0000DB
:100F700000D5002080E8FF1FC0F834D0C0F838E06A
:100F8000C0F83CE04FF00000704700BF80EC200B41
:100F9000704700BF80EC200B704700BFC0EC200BF7
:100FA000704700000048704760020020004870470A
:100FB00098020020034640688C46002818BF8842EB
:100FC0003CBF03464068F8D318681844884207D0ED
:100FD0000CF1030020F00700001D411A521A0146CF
:100FE000081D0A60FFF705BA30B5B0F10A0271F1C9
:100FF00000034FEA900E4EEA817EB0EB0E0061EBEB
:1010000091014FEA101E4EEA017E10EB0E0041EBFB
:1010100011114FEA102E4EEA016E10EB0E0041EB5B
:1010200011214FEA104E4EEA014E10EB0E0041EB3B
:101030001141401841F100014FEAD00040EA4170EF
:101040004FEAD1014FEA810444EA907410EB800525
:1010500044EB01046D1944EB0404521BA3414FF00F
:10106000000348BF0A3200D530BD401C41F10001E9
:1010700030BD2DE9F0470D4699469246044600F1F1
:1010800024080168880604D5E06921F01001216078
:1010900000E00120A84201DD471B00E00027A16914
:1010A0007A1902EB0900081AA0612078C00602D460
:1010B0002046FFF779FC002608E0D4E901211AF860
:1010C00006009047206A401C761C20624E45F4DBE7
:1010D0002078C0060AD52046FFF766FC06E0D4E972
:1010E000012130209047206A401C2062381EA7F161
:1010F0000107F4DC07E0D4E9012118F80500904766
:10110000206A401C2062281EA5F10105F3DC204660
:10111000FFF760FC2078000602D50220BDE8F087CA
:101120000120FBE72DE9FF4F0C461E464FF0FF372D
:101130008BB0D2E90001DDF860800A908A46C1F3E5
:101140000A5505B93D46002108464FF00000BAF1A6
:10115000000F00F4400005DA00EB80004FF440017E
:1011600001EA50004FEA9059B9F1010F00DDB9468C
:101170000A9850EA4A000ED044F61050A5F2FF3506
:1011800045432F14B8F1000F1ED07542291E1EDDF5
:10119000C9F100021CE0B8F1010F4FF0000001D0CE
:1011A000302103E0F24305E02154401CB042FBDB58
:1011B00030460022002121540B99C1F80880C1E972
:1011C00000200FB0BDE8F08FBD1B6D1CDEE74A4666
:1011D00000DA694206A800F04BFC06AB93E8070072
:1011E00003AB83E8070050460A991FF005FF8DE81E
:1011F0000700A0F500501F3800900398002D0ADD6D
:1012000042F21F014A460844002303A9039068469E
:1012100020F06EF909E0A0F500504A461F3800237F
:1012200003A90390684620F078F98DE807000004D0
:10123000000C03D04FF0FF30410800E01046B8F139
:10124000000F03D00022009215461EE0751E05D443
:10125000FFF7CAFE303262556D1EF9D5B346012242
:10126000084302D000227F1C04E02078302801D1FE
:1012700000227F1E002A099784D01DE0112D07DA75
:10128000FFF7B2FE303262556D1C50EA0102F5D113
:10129000084302D00098C8B10EE00021681E05E0A6
:1012A000235C625C63542254401E491C8142F7DB7C
:1012B000AB46A81B401E0990002004F80B000B98B9
:1012C000099AC0F80880C0E9002B7AE711264FF090
:1012D000000857E72DE9F04F88460446D21D22F05A
:1012E000070191B0D1E90001CDE90A0120F04CFAE3
:1012F00002460B98C00F01D02D2007E0206881071F
:1013000001D52B2002E0202101EAC000032A099028
:1013100001D0072A05DB03464146204600F068FB62
:101320000BE12078800601D5E06900E00620B8F1E5
:10133000650F814606D0B8F1660F18D0B8F1670F77
:1013400070D131E00020B9F1110F009001DB1123C1
:1013500001E009F101030AAA01A90CA8FFF7E2FEC6
:10136000DDE90C70002609F10105834647E0012004
:101370004B4600904FF000470AAA01A90CA8FFF7BE
:10138000D1FEDDE90DB00C995D46002610B909F1DA
:1013900001000D18B9EB050003D4C0F1FF3609F1C7
:1013A0000105A5EB09002BE0B9F1010F01DA4FF0BF
:1013B00001090020B9F1110F0090484601DD112309
:1013C00000E003460AAA01A90CA8FFF7ABFEDDE97D
:1013D0000C704D4600268346207800070AD4AB45A2
:1013E00000DA5D4601A8012D04DD411911F8011C48
:1013F000302907D04F4502DA17F1040F04DA012033
:1014000082460FE06D1EEEE7002F02DCED1B3E442E
:1014100003E0781CA84200DD7D1CB81B00F1010A26
:101420004FF000472078000703D4AA4501DB4FF0B6
:10143000FF3A0021B7F1004F0DF143088DF843103A
:1014400024D002202B23002F01DA7F422D230A21F2
:10145000021EA0F1010000DC5FB197FBF1FC97FBDD
:10146000F1F201FB1C7C17460CF1300C08F801CDA1
:10147000EEE7A8F1010003702188090501D5452197
:1014800000E06521A0F1010800F8011C09980FA9EE
:10149000A1EB0807FF1D00B10120411901EBEA7023
:1014A000A1693844081A401EA0612078C00602D401
:1014B0002046FFF779FA099828B1D4E9012190472D
:1014C000206A401C20622078C00622D52046FFF703
:1014D0006BFA1EE0002E04DBB34502DD01A8805D3F
:1014E00000E03020D4E901219047206A401C2062AE
:1014F000761CAAF101005FEA000A0AD100F074FA32
:10150000C0680168405CD4E901219047206A401C12
:101510002062281EA5F10105DCDC07E0D4E90121E9
:1015200018F8010B9047206A401C2062381EA7F172
:101530000107F3DC2046FFF74DFA032011B041E626
:101540002DE9F04F04460D46D21D22F0070089B068
:10155000D0E900974846394620F016F90246F80FC0
:1015600001D02D2307E02068810701D52B2302E05D
:10157000202101EAC0038DF820300BB1012000E0EA
:101580000020032A824601D0072A04DB2946204690
:1015900000F02EFA3FE12078800601D40D2500E00E
:1015A000E569C7F30A560D2D49DA00214FEA175BAA
:1015B00008464FF00000002F00F4400007DA00EB6F
:1015C00080004FF4400100EBD07001EA600081150B
:1015D000012901DD4FF0FF3100224FEA850CBCF1FB
:1015E000180F06D31346ACF118004FF08052C240DA
:1015F00003E04FF4801323FA0CF30CF10C0CBCF154
:10160000200F04D3ACF1200C09FA0CF001E007FA2A
:101610000CF000294FF0004801DD18B90FE00ED1A1
:1016200040450CD319EB02095F4121B9404502D175
:101630009F4329EA0209BBEB175F00D0761C208884
:10164000000502D57B48784402E07A48784419388E
:1016500008AA302302F80A30037C0AF10101002EA7
:101660000AF1020A53546A4602DC4FF0300101E0ED
:101670004FF031014FF001088DF8001002D0A6F2B2
:10168000FF3603E059EA470100D06B4E002D02DC23
:101690002178090704D54FF002082E218DF801109A
:1016A000C44600210BE0C7F303433F01C35C491C60
:1016B0006D1E02F80830052908F1010801DA002D35
:1016C000F1DC00210CE000EB1973491C1B786D1E46
:1016D000082902F808304FEA091908F1010801DA6F
:1016E000002DF0DC21688B0602D516E0A8F1010878
:1016F000E04505DD02EB080313F8013C302BF5D083
:10170000B8F1000F09DD02EB080313F8013C2E2BA2
:1017100003D1090701D4A8F10108002D05DD3E2100
:1017200002F808106D1E08F10108407C002E02F836
:10173000080008F1010804DA2D20764202F80800BA
:1017400002E02B2002F808000A214FF47A7086424A
:1017500008F101080BDB96FBF0F3303302F8083098
:1017600096FBF0F308F1010800FB136601E0642E1C
:101770000CDB642096FBF0F3303302F8083096FB64
:10178000F0F308F1010800FB136601E00A2E06DB06
:1017900096FBF1F0303002F8080008F1010896FBE2
:1017A000F1F001FB1060303002F80800A16908F187
:1017B000010808EB050202EB0A00081AA061207874
:1017C000C00602D42046FFF7EFF8216A08AE01EB0D
:1017D0000A00206204E0D4E9012116F8010B9047C9
:1017E000BAF1010AF7D22078C00602D52046FFF7E9
:1017F000DBF86E4609E016F8010B3E280FD0D4E95D
:1018000001219047206A401C2062B8F10108F2D201
:101810002046FFF7DFF809B00320BDE8F08F206A0B
:101820002844206203E0D4E90121302090476D1E56
:10183000EBD3F8E7CE10020002FCFFFF10B54369BE
:1018400013B1AFF3008001E0FFF7E7F8012010BD0E
:10185000127800F124010A7000224A700122EDE79B
:1018600011684FF0FF32E9E710B5436913B1AFF3E8
:10187000008001E0FFF774F9012010BD126800F14B
:1018800024014262002282620122EDE711684FF0DA
:10189000FF32E9E7007B00F08000704770B50D462D
:1018A000044604E029461AF039FD401C04D014F81F
:1018B000010B0028F6D170BD4FF0FF3070BD2DE94F
:1018C000F04116460C46054600F086F8036893F88A
:1018D0000101012807D0FF2C12D8185D80B101202A
:1018E0002C70BDE8F081D3F807013246214603F29F
:1018F0000713C7182846BC46BDE8F04101236047DE
:101900004FF0FF30EDE72DE9F0410646FFF74EFBC3
:101910008046454613E016B1E068B0420ED120681B
:101920002860D4E90101D8F8007088472046FEF706
:1019300060FDD8F80000B842EBD100E025462C68E5
:10194000002CE8D1BDE8F08110B500F011F9BDE838
:10195000104000F008B910B500F022F9BDE81040C1
:1019600000F001B986469EE8FF1FDEF834D0DEF8AD
:101970003CE0704790EC200B704700BF90EC200BD0
:10198000704700BFD0EC200B704770477546FFF7DB
:1019900009FBAE4605006946534620F00700854620
:1019A00018B020B5FEF7E4FCBDE820404FF000067B
:1019B0004FF000074FF000084FF0000BAC46ACE8CA
:1019C000C009ACE8C009ACE8C009ACE8C00921F026
:1019D00007018D467047000010B500F005F8001DA6
:1019E00010BD00BF11FE01000048704780020020BA
:1019F0002DE9F0411F46044603260168072A01F439
:101A0000006004DB08B116A505E016A503E008B1E7
:101A100015A500E015A521F010002060A069C01EEA
:101A2000A0610FB1401EA0612046FEF7BDFF4FB17F
:101A3000D4E9012138469047206A401C2062C01C2E
:101A4000206206E0206AFAE7D4E9012115F8010BCB
:101A50009047761EF8D22046FEF7BCFFBDE8F08125
:101A60004E414E006E616E00494E4600696E660042
:101A70002DE9F047814616468AB0354878440DC8AE
:101A80008DE80D0032487844801C03AC0DC884E812
:101A90000D0041F69B300844372190FBF1F290FB9A
:101AA000F1F5A5F1800501FB12041B3C02D564424F
:101AB000012000E00020DFF898A080460027FA44CB
:101AC000AAF1BE0A0EE0E0070AD03246684607EBEC
:101AD000470101230AEB81011FF01FFD8DE807007C
:101AE00064107F1C002CEED1194F7F44AE3F19E0EB
:101AF000E80715D007EB04100DF1180A90E80E0066
:101B00008AE80E00C068F04201D198190890324668
:101B1000012306A903A81FF000FD03AB83E807001B
:101B20006D10641C002DE3D14FF00103324669466D
:101B3000B8F1000F03A802D01FF0DAFC01E01FF09B
:101B4000ECFCC9E90001C9F808200AB0BDE8F0873B
:101B5000280D020010B50446AFF300802046BDE812
:101B60001040FEF7F1BB002801D01AF0E7B970472A
:101B700010B5002102A000F079F8012010BD00008E
:101B8000534947414252543A2041626E6F726D612F
:101B90006C207465726D696E6174696F6E0000000F
:101BA00010B5012805D0002103A000F05FF8012046
:101BB00010BD09A1F8E7000053494752544D454D67
:101BC0003A204F7574206F662068656170206D65DE
:101BD0006D6F7279000000003A2048656170206DD9
:101BE000656D6F727920636F7272757074656400D1
:101BF00030B44FF0013C50F8042B51F8043BCCFAC0
:101C000052F4D51A20D1FCB950F8042B51F8043BFA
:101C1000CCFA52F4D51A17D1B4B950F8042B51F8B4
:101C2000043BCCFA52F4D51A0ED16CB950F8042BFF
:101C300051F8043BCCFA52F4D51A05D1002CDAD075
:101C400030BC4FF00000704729BAB1FA81F111F0B1
:101C50001801D1F120008440F2D1CA40CB4012F0EB
:101C6000FF0213F0FF0330BCD01A704770B5054671
:101C70000C460A2000E06D1C00F011F835B1287800
:101C80000028F8D102E0641C00F009F814B12078B3
:101C90000028F8D1BDE870400A20AFF3008008B5F5
:101CA00069468DF800000320ABBE08BD80B54FF437
:101CB00020401AF09DF980BDFFE7FEE7B0B5304A3D
:101CC0004CF24025136823F0010313602D4A4FF6B0
:101CD000F07314681C40AC4205D0146823404CF2E9
:101CE0007024A3422BD12B4A126832B12B4A012314
:101CF00093609368002BFCD11AE0274A13686FF3B6
:101D00001F33B3F58A6F0DD0136840F283446FF32D
:101D10001F33A34206D0126840F285436FF31F328F
:101D20009A42E3D11E4A012393609368002BFCD1B1
:101D300010601068401AB0FA80F04009B0BD146815
:101D40004FF6F0734DF220251C40AC4205D01268CE
:101D50001A404DF230239A42C8D10B4A0B4CD2F8AC
:101D6000F833A3420AD1D2F8FC33094CA34205D17F
:101D7000012393609368002BFCD1D9E70020B0BD0C
:101D8000002000E000ED00E0004C024601001700DA
:101D900001DDC5A3002004E00010005C003002401B
:101DA000004C025880B54DF2C850C2F2000000F05D
:101DB00027FA80BD80B54DF20C60C2F2000000F041
:101DC00055FC80BD80B54DF27060C2F2000000F09D
:101DD0004DFC80BD80B54DF2D460C2F2000000F031
:101DE00045FC80BD82B001900198007810384AF619
:101DF000AB21CAF6AA21A0FB0110000900900099AE
:101E000042F63400C0F60200405C01990866009872
:101E1000042807D3FFE701990868042262F3090048
:101E2000C86506E00199086840F2FF329043C86532
:101E3000FFE70198C06D02B07047000086B00590C2
:101E4000002004900598806A03900598806900BB83
:101E5000FFE703980290032819D80299DFE801F000
:101E6000020C0216059890F82F00C00718B1FFE782
:101E700001200490FFE70BE00598C06AB0F1C07F35
:101E800003D1FFE701200490FFE701E000E0FFE756
:101E900040E005988069B0F5005F22D1FFE7039824
:101EA000019003281BD80199DFE801F00205020F19
:101EB0000120049014E0059890F82F00C00718B195
:101EC000FFE701200490FFE70AE00598C06AB0F13F
:101ED000C07F03D1FFE701200490FFE700E0FFE7A8
:101EE00017E003980090032804D3FFE70098032825
:101EF00003D00CE0012004900AE0059890F82F0030
:101F0000C00718B1FFE701200490FFE700E0FFE7FA
:101F1000FFE7FFE7049806B07047000084B0039025
:101F200002910192009303980168086820F48020D0
:101F30000860009803990968486003988068402801
:101F400009D1FFE70198039909688860029803990D
:101F50000968C86008E002980399096888600198D8
:101F600003990968C860FFE704B070477047000034
:101F700080B50DF007F980BD80B54FF405401AF02B
:101F800037F864201AF084F980BD000072B6FFE7CC
:101F9000FEE7000081B000900098006980B201B0B7
:101FA0007047000080B586B005908DF813100020B2
:101FB0008DF812008DF811008DF81000ADF80E00AC
:101FC0008DF81200FFE79DF812009DF8131088426B
:101FD00034DAFFE70020C4F20200029010210191E0
:101FE0000022009201F078F800981AF087F8009823
:101FF0001AF084F81AF03AF88DF811001AF036F851
:102000000199024602988DF81020012201F064F82F
:102010009DF811109DF8100040EA0120ADF80E0067
:10202000BDF80E0005999DF8122021F81200FFE777
:102030009DF8120001308DF81200C4E706B080BD93
:1020400080B582B00090009818B9FFE70120019098
:1020500010E00098806838B9FFE7009900204860D8
:10206000009800F00BF8FFE700990120886000203D
:102070000190FFE7019802B080BD000082B001909E
:102080000198006843F20001C4F20201884212D1B3
:10209000FFE7FFE70020009043F63000C4F20200A3
:1020A000016841F480510160006800F480500090A4
:1020B0000098FFE7FFE702B07047000081B0009092
:1020C00001B0704786B00490039104984068B0F561
:1020D000403F06D0FFE70498406808B1FFE7FFE7FC
:1020E000FFE7FFE70498806B012803D1FFE7022098
:1020F000059081E0049901208863FFE7FFE70499D8
:102100000220C8630498039900EB01101830029074
:1021100002994868896840EA014000900F20CFF694
:1021200003700190029840680A2805D0FFE70298E2
:102130004068092807D1FFE70298C17B009840EA70
:102140000160009006E00298C168009840EA0160D2
:102150000090FFE7039810BBFFE704980068406A0F
:1021600001998843009908430499096848620298D4
:102170000068049909688861029840680A2805D0B7
:10218000FFE702984068092808D1FFE70298C06875
:1021900020F07F40049909688862FFE721E00498F5
:1021A0000068C06901998843009908430499096847
:1021B000C86102980068049909680861029840683B
:1021C0000A2805D0FFE702984068092808D1FFE7F0
:1021D0000298C06820F07F40049909680862FFE710
:1021E000FFE704990120C863FFE704990020886392
:1021F000FFE700200590FFE7059806B07047000054
:1022000080B584B0039003980068406802900398FA
:102210000068006801909DF80800C00730B3FFE730
:102220009DF80500C00700B3FFE703980168086840
:1022300020F4807008600399086C40F00100086485
:10224000039801680120886003990420C863FFE7B0
:10225000039900208863FFE70398406920B1FFE7F6
:10226000039841698847FFE7FFE7FFE79DF808000B
:102270008006002827D5FFE79DF805008006002886
:1022800020D5FFE703980168086820F40050086033
:1022900003980168202088600399086C40F00200D0
:1022A000086403990420C863FFE70399002088634A
:1022B000FFE70398406920B1FFE703984169884729
:1022C000FFE7FFE7FFE79DF808000007002827D594
:1022D000FFE79DF805000007002820D5FFE70398D9
:1022E0000168086820F4006008600398016808200D
:1022F00088600399086C40F0040008640399042086
:10230000C863FFE7039900208863FFE703984069EB
:1023100020B1FFE7039841698847FFE7FFE7FFE740
:102320009DF808004007002815D5FFE79DF8050037
:10233000400700280ED5FFE703980168086820F4DD
:10234000806008600398016804208860039800F0AA
:1023500097F8FFE7FFE79DF808008007002825D5DC
:10236000FFE79DF80500800700281ED5FFE70398CA
:102370000168086820F40070086003980168022072
:1023800088600399086C086403990120C863FFE71B
:10239000039900208863FFE70398006920B1FFE7F5
:1023A000039801698847FFE7FFE7FFE79DF808000A
:1023B000C006002820D5FFE79DF80500C0060028CC
:1023C00019D5FFE703980168086820F48050086079
:1023D00003980168102088600399086C08640399C9
:1023E0000120C863FFE7039900208863FFE7039893
:1023F000FFF764FEFFE7FFE704B080BD80B582B061
:102400000090009818B9FFE70120019034E000988F
:10241000C06B38B9FFE7009900208863009800F08E
:1024200033F8FFE700990220C8630098006800684D
:1024300020F44030009A11685268104308600098F8
:102440000068406B20F00700009A11689268104302
:10245000486300980068006C43F6FF718843009A57
:102460001168D26810430864009900200864009A3B
:102470000121D1630190FFE7019802B080BD000007
:1024800081B0009001B0704780B584B0039003988C
:1024900000684BF20001C4F2020188421BD1FFE741
:1024A000FFE70020029043F63000C4F2020001680A
:1024B00041F400010160006800F4000002900298FD
:1024C000FFE75A2001900521002200F0AFFE01989D
:1024D00000F0A4FEFFE704B080BD000080B584B02A
:1024E00002900298C06D019000F00CFE00900298DE
:1024F000806B02280BD0FFE7029980208865FFE7F8
:10250000029900204863FFE7012003904FE0029802
:102510000168086820F016000860029801684869A0
:1025200020F0800048610298406C20B9FFE70298D3
:10253000C06C38B1FFE702980168086820F0080015
:102540000860FFE702980168086820F00100086051
:10255000FFE7029800680068C007B0B1FFE700F02D
:10256000D1FD0099401A06280ED3FFE702992020DA
:102570008865029903208863FFE702990020486379
:10258000FFE70320039012E0E3E70298016E3F208B
:10259000884001998860029901208863FFE70299C9
:1025A00000204863FFE7FFE700200390FFE7039860
:1025B00004B080BD82B000900098806B022806D0E5
:1025C000FFE7009980208865012001900CE00099C8
:1025D0000520886300980168086820F00100086001
:1025E000FFE700200190FFE7019802B0704700006C
:1025F00080B582B0019001984DF23871C2F20001AD
:10260000896C88422FD1FFE740F21430C2F20000FB
:10261000007808B9FFE726E040F21430C2F200006B
:10262000002101704DF23870C2F2000003681A6890
:1026300022F040021A60C1600268116821F4006152
:1026400011600168086840F04000086041F2000035
:10265000C4F202001021012200F03EFDFFF788FCC9
:102660001CF0E6FBFFE702B080BD000080B586B03D
:1026700005900020039040F20000C2F200000068C4
:1026800048F2B511C1F64E31A0FB0110800A02904C
:102690000598C06D01900198006804900498059910
:1026A000096EC840000700281AD5FFE705980068A2
:1026B00000684007002812D5FFE705980168086800
:1026C00020F0040008600598016E082088400199F8
:1026D00088600599886D40F001008865FFE7FFE795
:1026E00004980599096EC840C007A0B1FFE7059896
:1026F00000684069000600280CD5FFE70598016EC8
:1027000001208840019988600599886D40F0020099
:102710008865FFE7FFE704980599096EC840400700
:10272000002814D5FFE70598006800688007002896
:102730000CD5FFE70598016E042088400199886058
:102740000599886D40F004008865FFE7FFE704986D
:102750000599096EC840C006002847D5FFE70598CF
:1027600000680068000700283FD5FFE70598016E64
:10277000102088400199886005980068006840032F
:1027800000281AD5FFE705980068006800030028B4
:1027900009D4FFE70598406C20B1FFE70598416C2C
:1027A0008847FFE708E00598C06C20B1FFE705986F
:1027B000C16C8847FFE7FFE716E0059800680068EE
:1027C000C005002807D4FFE705980168086820F0D5
:1027D00008000860FFE70598406C20B1FFE7059806
:1027E000416C8847FFE7FFE7FFE7FFE7049805999B
:1027F000096EC8408006002840F18780FFE70598F1
:1028000000680068C00600287ED5FFE70598016EC5
:1028100020208840019988600598806B052832D176
:10282000FFE705980168086820F016000860059821
:102830000168486920F0800048610598406C20B923
:10284000FFE70598C06C38B1FFE705980168086894
:1028500020F008000860FFE70598016E3F208840DF
:1028600001998860059901208863FFE70599002098
:102870004863FFE70598406D20B1FFE70598416D7B
:102880008847FFE776E00598006800684003002865
:102890001AD5FFE70598006800680003002809D4EE
:1028A000FFE70598806C20B1FFE70598816C8847A9
:1028B000FFE708E00598006C20B1FFE70598016C80
:1028C0008847FFE7FFE71EE0059800680068C0053D
:1028D00000280FD4FFE705980168086820F0100071
:1028E0000860059901208863FFE705990020486387
:1028F000FFE7FFE70598006C20B1FFE70598016C42
:102900008847FFE7FFE7FFE7FFE70598806D88B39B
:10291000FFE70598806DC00718B3FFE7059905200C
:10292000886305980168086820F001000860FFE7E7
:102930000398013003900299884201D9FFE707E02C
:10294000FFE7059800680068C0070028F0D1FFE79E
:10295000059901208863FFE7059900204863FFE798
:10296000FFE70598006D20B1FFE70598016D8847E6
:10297000FFE7FFE706B080BD80B586B00490002079
:10298000039000F0BFFB0290049818B9FFE7012004
:1029900005909BE00498406A08B1FFE7FFE70499BF
:1029A00002208863FFE7049900204863FFE704984A
:1029B0000168086820F001000860FFE704980068DB
:1029C0000068C00780B1FFE700F09CFB0299401A45
:1029D000062808D3FFE7049920208865049903207E
:1029E0008863059072E0E9E7049800680068039046
:1029F000039848F23F01CFF2100108400390049978
:102A000000914868D1F808C0CB680A6940EA0C0018
:102A1000184310434A6910438A691043CA69104336
:102A2000096A01430398084303900498406A042804
:102A300008D1FFE70499C86A096B0143039808436A
:102A40000390FFE7039804990968086004980068F8
:102A500040690390039820F0070003900498416AAE
:102A60000398084303900498406A042818D1FFE7AC
:102A70000498816A0398084303900498C06A70B16F
:102A8000FFE70498FFF7DAF940B1FFE70499402027
:102A90008865049901208863059017E0FFE7FFE748
:102AA00003980499096848610498FFF79BF901901D
:102AB0000498016E3F2088400199886004990020A5
:102AC0008865049A012191630590FFE7059806B097
:102AD00080BD000086B00490039102920020019016
:102AE000FFE70498406B012803D1FFE7022005901F
:102AF0003AE0049901204863FFE7FFE70498806B00
:102B0000012826D1FFE70398009005281DD80099D9
:102B1000DFE801F003070B0F13170298049908640C
:102B200016E002980499486412E0029804998864B7
:102B30000EE002980499C8640AE0029804990865B6
:102B400006E002980499486502E001200190FFE741
:102B500002E001200190FFE7FFE7049900204863AD
:102B6000FFE701980590FFE7059806B07047000061
:102B700080B588B0069005910492039300200290DE
:102B80000698C06D0190FFE70698406B012803D1BD
:102B9000FFE7022007903EE0069901204863FFE727
:102BA000FFE70698806B01282AD1FFE706990220EB
:102BB000886306990020886506980599049A039B06
:102BC000FFF7ACF90698016E3F20884001998860B4
:102BD00006980168086840F0160008600698406C86
:102BE00038B1FFE706980168086840F008000860FF
:102BF000FFE706980168086840F00100086007E0F8
:102C0000FFE7069900204863FFE702200290FFE7F4
:102C100002980790FFE7079808B080BD80B582B0A2
:102C200043F62001C4F202014CF6FF10CFF2FE6021
:102C3000086000200190086043F62401C4F20201FC
:102C400047F63312C0F277420A60086043F610017B
:102C5000C4F2020141F2FF72C2F2E0220A6008608F
:102C600043F61401C4F20201C1220A60086043F66F
:102C70001801C4F2020101220A60086000F0A6FAFD
:102C8000019802B080BD000080B582B0019001982B
:102C900019F0DEFA02B080BD90B00F900E910020C6
:102CA0000C900B900A900D90FFE70D980F2800F202
:102CB000E881FFE70D99012088400C900E9800688C
:102CC0000C9908400B900B980C99884240F0D481E5
:102CD000FFE70E98406800F00300012807D0FFE7E7
:102CE0000E98406800F0030002282FD1FFE70F98EC
:102CF00080680A900D984100032000FA01F10A98BB
:102D000088430A900E98C0680D99490000FA01F1B5
:102D10000A9808430A900A980F9988600F984068AB
:102D20000A900D99012000FA01F10A9888430A904F
:102D30000E984068C0F300100D9900FA01F10A984E
:102D400008430A900A980F994860FFE70E98406878
:102D500000F00300032818D0FFE70F98C0680A901E
:102D60000D984100032000FA01F10A9888430A9067
:102D70000E9880680D99490000FA01F10A980843FD
:102D80000A900A980F99C860FFE70E98406800F013
:102D90000300022826D1FFE70F980D996FF0030278
:102DA00002EA51010844006A0A900D9800F00700F9
:102DB00081000F2000FA01F10A9888430A900E98CA
:102DC00000690D9901F00701890000FA01F10A98E4
:102DD00008430A900A980F990D9B02EA5302114486
:102DE0000862FFE70F9800680A900D9841000320E1
:102DF00000FA01F10A9888430A900E98406800F0A2
:102E000003000D99490000FA01F10A9808430A905D
:102E10000A980F9908600E9880798007002800F0C2
:102E20002A81FFE7FFE70020099043F64400C4F23F
:102E30000200016841F480410160006800F48040B4
:102E400009900998FFE70D9820F0030043F6080168
:102E5000C4F2010140580A900D9800F0030081006F
:102E60000F2000FA01F10A9888430A900F98002178
:102E7000C4F20201884203D1FFE7002008907AE003
:102E80000F9840F20041C4F20201884203D1FFE7EB
:102E9000012007906CE00F9840F60001C4F2020197
:102EA000884203D1FFE7022006905EE00F9840F6CB
:102EB0000041C4F20201884203D1FFE703200590DC
:102EC00050E00F9841F20001C4F20201884203D1A0
:102ED000FFE70420049042E00F9841F20041C4F261
:102EE0000201884203D1FFE70520039034E00F98E8
:102EF00041F60001C4F20201884203D1FFE7062037
:102F0000029026E00F9841F60041C4F20201884287
:102F100003D1FFE70720019018E00F9842F200016B
:102F2000C4F20201884203D1FFE7082000900AE0C2
:102F30000F9942F20042C4F202020A20914208BFF5
:102F400009200090FFE700980190FFE701980290A8
:102F5000FFE702980390FFE703980490FFE70498C7
:102F60000590FFE705980690FFE706980790FFE7B2
:102F700007980890FFE70898C0B20D9901F0030187
:102F8000890000FA01F10A9808430A900A980D99FD
:102F900021F0030143F60802C4F20102885043F60F
:102FA0000840C4F2010000680A900B990A9888430F
:102FB0000A900E988079C006002805D5FFE70B9986
:102FC0000A9808430A90FFE70A9843F60841C4F2BA
:102FD0000101086043F60C40C4F2010000680A9049
:102FE0000B990A9888430A900E98807980060028E9
:102FF00005D5FFE70B990A9808430A90FFE70A985E
:1030000043F60C41C4F20101086043F60440C4F2E7
:10301000010000680A900B990A9888430A900E985C
:1030200080798007002805D5FFE70B990A980843A7
:103030000A90FFE70A9843F60441C4F201010860D0
:1030400043F60040C4F2010000680A900B990A9808
:1030500088430A900E988079C00728B1FFE70B9942
:103060000A9808430A90FFE70A9843F60041C4F221
:1030700001010860FFE7FFE7FFE70D9801300D90C1
:1030800013E610B07047000083B00290ADF8061050
:1030900002980069BDF80610084203D0FFE701203E
:1030A000009002E000200090FFE7009803B0704716
:1030B00083B00290ADF80610029840690090009A23
:1030C000BDF8060002EA0001904340EA014002997F
:1030D000886103B07047000083B00290ADF806101D
:1030E0000092009828B1FFE7BDF8060002998861B8
:1030F00005E0BDF80600000402998861FFE703B00F
:10310000704700004DF61040C2F2010000687047A1
:1031100040F24000C2F2000002684DF61041C2F2D7
:1031200001010868104408607047000080B543F64C
:103130000041C4F20201086840F4007008600868A9
:1031400040F480600860086840F4807008600320E4
:1031500000F084F80F2000F005F800F039F80020A6
:1031600080BD000080B582B0009040F20000C2F245
:103170000000006840F24001C2F200010A684FF40A
:103180007A71B1FBF2F1B0FBF1F001F025F918B161
:10319000FFE70120019016E000980F280DD8FFE707
:1031A00000994FF0FF30002200F040F8009840F204
:1031B0004401C2F20001086002E00120019002E037
:1031C00000200190FFE7019802B080BD7047000029
:1031D00082B0FFE70020019043F64400C4F20200F1
:1031E000016841F480410160006800F48040019072
:1031F0000198FFE7FFE70020009043F64000C4F28B
:103200000200016841F080510160006800F08050C8
:1032100000900098FFE702B07047000080B582B0D0
:103220000190019818F0A8F902B080BD80B586B071
:103230000590049103920020029018F0B3F90290D7
:103240000598019002980499039A02F091FB0146B7
:10325000019818F0AFF906B080BD000080B582B0CB
:103260000190019818F0C4F902B080BD80B584B017
:1032700000200290FFE70020019043F64000C4F2D6
:103280000200016841F080510160006800F0805048
:1032900001900198FFE74021C4F20E21012008604F
:1032A000FFF730FF0290FFE747F20400C4F200008E
:1032B000006800F48030B0F5803F0CD0FFE7FFF7E6
:1032C00021FF0299401AB0F57A7F03D9FFE7032066
:1032D000039023E0E8E74421C4F20E2101200860B6
:1032E000FFF710FF0290FFE747F20400C4F200006E
:1032F000006800F40030B0F5003F0CD0FFE7FFF7A6
:1033000001FF0299401AB0F57A7F03D9FFE7032045
:10331000039003E0E8E700200390FFE7039804B080
:1033200080BD000080B584B002900191029818B968
:10333000FFE7012003901AE1019843F60041C4F22F
:103340000201096801F00F01884211D9FFE70199D4
:1033500043F60040C4F202000170006800F00F0064
:103360000199884203D0FFE701200390FFE0FFE7C7
:1033700002980078800700282AD5FFE70298007895
:103380004007002809D5FFE743F60801C4F202010F
:10339000086840F4E0500860FFE7029800780007F2
:1033A000002809D5FFE743F60801C4F202010868C6
:1033B00040F460400860FFE743F60801C4F20201F0
:1033C000086820F0F000029A926810430860FFE756
:1033D00002980078C00700286AD0FFE7029840688A
:1033E000012810D1FFE743F60000C4F20200006894
:1033F00000F400310020B0EB514F03D1FFE7012072
:103400000390B4E02AE002984068022805D0FFE764
:1034100002984068032810D1FFE743F60000C4F289
:103420000200006800F000710020B0EB516F03D182
:10343000FFE7012003909AE00FE043F60000C4F29A
:103440000200006800F002010020B0EB510F03D130
:10345000FFE7012003908AE0FFE7FFE743F608015A
:10346000C4F20201086820F00300029A5268104377
:103470000860FFF747FE0090FFE743F60800C4F23C
:103480000200006800F00C0002994968B0EB810F5F
:103490000DD0FFE7FFF736FE0099401A41F289315F
:1034A000884203D3FFE70320039060E0E5E7FFE7EE
:1034B000019843F60041C4F20201096801F00F01CE
:1034C000884211D2FFE7019943F60040C4F202009E
:1034D0000170006800F00F000199884203D0FFE7F7
:1034E0000120039043E0FFE702980078400700289E
:1034F0000CD5FFE743F60801C4F20201086820F486
:10350000E050029AD26810430860FFE70298007802
:10351000000700280DD5FFE743F60801C4F20201B9
:10352000086820F46040029A126940EAC20008600C
:10353000FFE700F049F843F60801C4F20201096808
:10354000C9B20A0942F61C01C0F60201895CC840F2
:1035500040F20001C2F20001086040F24400C2F2F1
:1035600000000068FFF7FEFD00200390FFE70398CE
:1035700004B080BD40F20000C2F200000068704755
:1035800080B5FFF7F7FF43F60801C4F202010968AE
:10359000C1F3822242F62C01C0F60201895CC840C8
:1035A00080BD000080B5FFF7E5FF43F60801C4F2D7
:1035B0000201096889B24A0B42F62C01C0F60201E9
:1035C000895CC84080BD000080B586B000200590B1
:1035D00004900390029043F60800C4F202000068D1
:1035E00000F00C000146019140B1FFE7019804286A
:1035F0000AD0FFE7019808280CD04FE042F20040C3
:10360000C0F2F40002904FE047F64000C0F27D1097
:10361000029049E043F60400C4F20200016801F0A0
:103620003F01059100684002002813D5FFE743F6EB
:103630000400C4F202000068C0F3881047F640019D
:10364000C0F27D11A0FB0101059A0023FCF75AFF8F
:10365000049012E043F60400C4F202000068C0F3D4
:10366000881042F20041C0F2F401A0FB0101059A6A
:103670000023FCF747FF0490FFE743F60400C4F281
:103680000200006800F44031022000EBD1300390CA
:1036900004980399B0FBF1F0029005E042F200407B
:1036A000C0F2F4000290FFE7029806B080BD00006F
:1036B00080B586B00490049818B9FFE70120059002
:1036C0003CE304980078C007002800F0A280FFE7E0
:1036D00043F60800C4F20200006800F00C00042861
:1036E00013D0FFE743F60800C4F20200006800F0C0
:1036F0000C0008281DD1FFE743F60400C4F20200C5
:1037000000684002002814D5FFE743F60000C4F229
:103710000200006800F400310020B0EB514F07D0E8
:10372000FFE70498406818B9FFE70120059005E31A
:103730006EE0FFE704984068B0F5803F09D1FFE7ED
:1037400043F60001C4F20201086840F480300860CA
:1037500020E004984068B0F5A02F0DD1FFE743F6B4
:103760000001C4F20201086840F480200860086883
:1037700040F4803008600CE043F60001C4F202011E
:10378000086820F480300860086820F48020086011
:10379000FFE7FFE7FFE704984068E0B1FFE7FFF7C6
:1037A000B1FC0390FFE743F60000C4F2020000689A
:1037B00000F400310020B0EB514F0BD1FFE7FFF7D1
:1037C000A1FC0399401A652803D3FFE70320059065
:1037D000B4E2E8E71BE0FFF795FC0390FFE743F650
:1037E0000000C4F20200006800F400310020B0EBD9
:1037F000514F0BD0FFE7FFF785FC0399401A65286E
:1038000003D3FFE70320059098E2E8E7FFE7FFE72F
:10381000FFE7049800788007002840F19380FFE7D5
:1038200043F60800C4F20200006810F00C0F13D039
:10383000FFE743F60800C4F20200006800F00C0045
:1038400008282BD1FFE743F60400C4F20200006809
:103850004002002822D4FFE743F60000C4F2020031
:10386000006800F002010020B0EB510F08D0FFE724
:103870000498C068012803D0FFE7012005905DE2AD
:1038800043F60001C4F20201086820F0F800049A2F
:10389000126940EAC2000860FFE752E00498C0687D
:1038A00068B3FFE70021C4F2472101200860FFF759
:1038B00029FC0390FFE743F60000C4F20200006811
:1038C00000F002010020B0EB510F0BD1FFE7FFF732
:1038D00019FC0399401A032803D3FFE7032005903E
:1038E0002CE2E8E743F60001C4F20201086820F088
:1038F000F800049A126940EAC200086020E0002142
:10390000C4F2472100200860FFF7FCFB0390FFE7AB
:1039100043F60000C4F20200006800F0020100203B
:10392000B0EB510F0BD0FFE7FFF7ECFB0399401A08
:10393000032803D3FFE703200590FFE1E8E7FFE753
:10394000FFE7FFE7049800780007002849D5FFE764
:103950000498406910B3FFE740F68061C4F2472144
:1039600001200860FFF7CEFB0390FFE743F67400E9
:10397000C4F20200006800F002010020B0EB510F19
:103980000BD1FFE7FFF7BEFB0399401A032803D3CF
:10399000FFE703200590D1E1E8E721E040F68061F0
:1039A000C4F2472100200860FFF7ACFB0390FFE75B
:1039B00043F67400C4F20200006800F00201002027
:1039C000B0EB510F0BD0FFE7FFF79CFB0399401AB8
:1039D000032803D3FFE703200590AFE1E8E7FFE703
:1039E000FFE7049800784007002840F1C880FFE70F
:1039F0000020019043F64000C4F202000068C000BD
:103A0000002814D4FFE7FFE70020009043F64000B1
:103A1000C4F20200016841F080510160006800F0CA
:103A2000805000900098FFE701200190FFE747F2E7
:103A30000000C4F200000068C005002821D4FFE7A0
:103A400047F20001C4F20001086840F48070086089
:103A5000FFF758FB0390FFE747F20000C4F20000B5
:103A60000068C00500280BD4FFE7FFF74BFB039964
:103A7000401A032803D3FFE7032005905EE1EBE73C
:103A8000FFE7FFE704988068012809D1FFE743F6C4
:103A90007001C4F20201086840F0010008601FE0F4
:103AA0000498806805280DD1FFE743F67001C4F241
:103AB0000201086840F004000860086840F0010056
:103AC00008600CE043F67001C4F20201086820F0BF
:103AD00001000860086820F004000860FFE7FFE7C5
:103AE000FFE704988068F0B1FFE7FFF70BFB039056
:103AF000FFE743F67000C4F20200006800F0020124
:103B00000020B0EB510F0DD1FFE7FFF7FBFA03994F
:103B1000401A41F28931884203D3FFE70320059020
:103B20000CE1E6E71DE0FFF7EDFA0390FFE743F64F
:103B30007000C4F20200006800F002010020B0EB47
:103B4000510F0DD0FFE7FFF7DDFA0399401A41F25C
:103B50008931884203D3FFE703200590EEE0E6E7D2
:103B6000FFE70198012809D1FFE743F64001C4F2BD
:103B70000201086820F080500860FFE7FFE7049822
:103B80008069002800F0D780FFE743F60800C4F200
:103B90000200006800F00C00082800F08280FFE7B7
:103BA0000498806902285AD1FFE76021C4F24721B6
:103BB00000200860FFF7A6FA0390FFE743F6000035
:103BC000C4F20200006800F000710020B0EB516FF9
:103BD0000BD0FFE7FFF796FA0399401A032803D3A7
:103BE000FFE703200590A9E0E8E70499C869D1F848
:103BF00020C04B6A8A6A40EA0C0040EA8310D20374
:103C00004FF6FF739A43A2F580321043C96A40EA27
:103C1000016043F60401C4F2020108606021C4F2AD
:103C2000472101200860FFF76DFA0390FFE743F694
:103C30000000C4F20200006800F000710020B0EB48
:103C4000516F0BD1FFE7FFF75DFA0399401A032884
:103C500003D3FFE70320059070E0E8E720E0602150
:103C6000C4F2472100200860FFF74CFA0390FFE7F9
:103C700043F60000C4F20200006800F0007100206A
:103C8000B0EB516F0BD0FFE7FFF73CFA0399401AF6
:103C9000032803D3FFE7032005904FE0E8E7FFE7A1
:103CA00048E004988069012803D1FFE701200590CE
:103CB00044E043F60400C4F2020000680290049855
:103CC0008069012831D0FFE7029800F48000049950
:103CD000C969884229D1FFE7029800F03F000499A2
:103CE000096A884221D1FFE7029847F6C07108406F
:103CF0000499496AB0EB811F17D1FFE7029800F4DD
:103D000040300499896AC9034FF6FF729143A1F5C7
:103D10008031884209D1FFE7029800F07060049971
:103D2000C96AB0EB016F03D0FFE70120059005E001
:103D3000FFE7FFE7FFE700200590FFE7059806B0E3
:103D400080BD000081B0009001B0704780B584B0A4
:103D50000290029818B9FFE7012003906DE00298E5
:103D6000406A60B9FFE702984068B0F5827F01D1F0
:103D7000FFE703E002990020C861FFE705E0029930
:103D80000020086102994861FFE7029900208862DB
:103D90000298406D38B9FFE7029900200865029843
:103DA00000F04EF8FFE7029902204865029801688A
:103DB000086820F040000860029A0192116850687B
:103DC000D2F808C0D36800F482700CF4044C60444C
:103DD00003F400631844136903F0020318445369A1
:103DE00003F001031844936903F400731844D36982
:103DF00003F038031844136A03F080031843926AEF
:103E000002F4005210430860029801688369426A14
:103E1000042000EA134002F01002104448600298A7
:103E20000168C86920F40060C861029900208865B3
:103E3000029A012151650390FFE7039804B080BD09
:103E400080B58AB0099000200890079006900590F0
:103E500004900998006843F20041C4F201018842CD
:103E600063D1FFE7FFE70020039043F64400C4F26C
:103E70000200016841F400510160006800F4005044
:103E800003900398FFE7FFE70020029043F630001D
:103E9000C4F20200016841F010010160006800F006
:103EA000100002900298FFE7642004900220059021
:103EB000002000900690032007900520089041F212
:103EC0000000C4F2020004A9FEF7E6FE00994DF2DC
:103ED0000C60C2F20000019046F22842C4F20202D5
:103EE00002604FF00062426040228260C1604FF485
:103EF000806202614FF4006242614FF400528261BD
:103F0000C16101624162FEF737FD18B1FFE7FEF7BC
:103F10003DF8FFE7FFE709984DF20C61C2F200019E
:103F200081640998C863FFE7FFE70AB080BD00001D
:103F300080B588B006900591ADF812200393FFF785
:103F4000E1F80290BDF81200ADF806000698406D49
:103F5000012803D0FFE70220079025E1059820B152
:103F6000FFE7BDF8120018B9FFE7012007901BE139
:103F7000FFE70698006D012803D1FFE702200790B4
:103F800012E1069901200865FFE7FFE70699032083
:103F900048650699002088650599069A1163BDF861
:103FA0001210069A9186BDF81210069AD1860699CB
:103FB0008863069988870699C88706994864069990
:103FC000086406988068B0F5004F0DD1FFE70698A9
:103FD0000168086820F040000860069801680868D9
:103FE00040F480400860FFE706980068006800F031
:103FF0004000402807D0FFE706980168086840F0B5
:1040000040000860FFE70698C068B0F5006F4ED129
:10401000FFE70698406828B1FFE7BDF806000128D1
:104020000ED1FFE706980168006B0088C86006990A
:10403000086B023008630699C88E0138C886FFE70E
:10404000FFE70698C08E88B3FFE70698006880688F
:10405000800700280ED5FFE706980168006B0088EE
:10406000C8600699086B023008630699C88E01384B
:10407000C8861AE0FFF746F80299401A0399884269
:1040800004D3FFE70398013018B9FFE7039858B944
:10409000FFE7069901204865FFE7069900200865BB
:1040A000FFE7032007907FE0FFE7CAE74DE00698AF
:1040B000406828B1FFE7BDF8060001280ED1FFE7F0
:1040C00006980168006B007808730699086B013048
:1040D00008630699C88E0138C886FFE7FFE706988F
:1040E000C08E88B3FFE706980068806880070028C4
:1040F0000ED5FFE706980168006B007808730699F3
:10410000086B013008630699C88E0138C8861AE02A
:10411000FEF7F8FF0299401A0399884204D3FFE79B
:104120000398013018B9FFE7039858B9FFE70699DB
:1041300001204865FFE7069900200865FFE7032096
:10414000079031E0FFE7CAE7FFE706980399029A74
:1041500001F088FF20B1FFE7069920208865FFE77E
:104160000698806870B9FFE7FFE700200090069886
:104170000068C06800900698006880680090009809
:10418000FFE7FFE7069901204865FFE70699002051
:104190000865FFE70698806D18B1FFE701200790DA
:1041A00002E000200790FFE7079808B080BD0000FC
:1041B00080B584B002900191ADF802200298406D64
:1041C000012803D0FFE70220039098E0019820B176
:1041D000FFE7BDF8020018B9FFE7012003908EE069
:1041E000FFE70298006D012803D1FFE7022003904A
:1041F00085E0029901200865FFE7FFE702990320A7
:1042000048650299002088650199029A1163BDF8FA
:104210000210029A9186BDF80210029AD186029984
:104220008863029948640299086402998887029910
:10423000C88702988068B0F5004F0DD1FFE702985B
:104240000168086820F0400008600298016808686A
:1042500040F480400860FFE70298816C45F6A97041
:10426000C0F6000048640298816C45F6C170C0F643
:10427000000008640298816C45F67570C0F6000075
:1042800008650298816C00204865029B1A68196BCA
:10429000986C0C32DB8EFEF76BFC68B1FFE702997D
:1042A000886D40F010008865FFE7029900200865DE
:1042B000FFE70120039022E002980068006800F008
:1042C0004000402807D0FFE702980168086840F0E6
:1042D00040000860FFE7FFE7029900200865FFE75C
:1042E00002980168486840F0200048600298016820
:1042F000486840F00200486000200390FFE7039800
:1043000004B080BD80B582B00190019800684DF284
:104310003871C2F20001096888423CD1FFE740F2DF
:104320001430C2F20000007808B9FFE733E040F231
:104330001431C2F2000100200870FFE74DF238701E
:10434000C2F20000006880680006002801D5FFE77F
:10435000F4E74DF23870C2F200000268116821F0F3
:10436000400111600021C1600268116821F4006100
:1043700011600168086840F04000086041F20000E8
:10438000C4F2020010210122FEF7A6FEFDF7F0FDA7
:104390001AF04EFDFFE702B080BD000081B0009032
:1043A00001B0704781B000900098042809D1FFE760
:1043B0004EF21001CEF20001086840F004000860DF
:1043C00008E04EF21001CEF20001086820F004006F
:1043D0000860FFE701B0704780B582B00190019896
:1043E00002F006FB02B080BD81B0009001B07047C2
:1043F00081B0009001B0704785B003900291FFE753
:104400000398C06B012803D1FFE70220049079E0F4
:1044100003990120C863FFE7FFE7039902200864BE
:1044200003980068406801900398006880680090D5
:10443000019820F0700001900298016801980843EB
:104440000190019803990968486003980068002169
:10445000C4F2010188423CD0FFE703980068B0F144
:10446000804F36D0FFE70398006840F20041C4F265
:10447000000188422DD0FFE70398006840F6000154
:10448000C4F20001884224D0FFE70398006840F698
:104490000041C4F2000188421BD0FFE70398006886
:1044A00040F20041C4F20101884212D0FFE70398B4
:1044B000006844F20001C4F20101884209D0FFE71C
:1044C0000398006841F60001C4F2000188420ED151
:1044D000FFE7009820F08000009002984168009863
:1044E000084300900098039909688860FFE70399E2
:1044F00001200864FFE703990020C863FFE700205C
:104500000490FFE7049805B07047000080B582B0C2
:104510000090009818B9FFE70120019031E0009861
:10452000006C38B9FFE700990020C863009800F0DC
:104530002BF8FFE7009902200864009951F8040B5A
:1045400002F004FB009901204866FFE70099012072
:104550004864009988640099C86400990865FFE779
:10456000FFE7009901204865009988650099C865B2
:1045700000990866FFE70099012008640020019077
:10458000FFE7019802B080BD80B584B00390039826
:104590000068B0F1804F1BD1FFE7FFE700200290D9
:1045A00043F64000C4F20200016841F001010160DD
:1045B000006800F0010002900298FFE71C200190C3
:1045C00005210022FEF732FE0198FEF727FEFFE7E5
:1045D00004B080BD83B001900198006C012803D025
:1045E000FFE70120029068E0019902200864019829
:1045F0000168C86840F00100C860019800680021A7
:10460000C4F2010188423CD0FFE701980068B0F194
:10461000804F36D0FFE70198006840F20041C4F2B5
:10462000000188422DD0FFE70198006840F60001A4
:10463000C4F20001884224D0FFE70198006840F6E8
:104640000041C4F2000188421BD0FFE701980068D6
:1046500040F20041C4F20101884212D0FFE7019804
:10466000006844F20001C4F20101884209D0FFE76A
:104670000198006841F60001C4F20001884212D19D
:10468000FFE701980068806800F00700009000983C
:10469000062807D0FFE701980168086840F001008C
:1046A0000860FFE706E001980168086840F0010033
:1046B0000860FFE700200290FFE7029803B0704710
:1046C00080B586B00490039100200290FFE7049823
:1046D000C06B012803D1FFE702200590A4E00499F4
:1046E0000120C863FFE7FFE70499022008640498EB
:1046F000006880680190019820F07700019001988F
:1047000020F47F400190019804990968886003981B
:1047100000680090002872D0FFE7009810286ED043
:10472000FFE7009820286AD0FFE70098302866D07D
:10473000FFE70098402855D0FFE70098502837D071
:10474000FFE70098602840D0FFE7009870280BD062
:10475000FFE70098B0F5805F05D0FFE70098B0F55F
:10476000005F16D052E054E004980068039B5A683A
:104770009968DB6802F0BCFA0498006880680190D0
:10478000019840F0770001900198049909688860C9
:104790003FE004980068039B5A689968DB6802F060
:1047A000A7FA04980168886840F48040886030E087
:1047B00004980068039A5168D26802F0C9FA049814
:1047C0000068502102F0AEFA23E004980068039AD2
:1047D0005168D26802F0E4FA04980068602102F09F
:1047E000A1FA16E004980068039A5168D26802F0B2
:1047F000AFFA04980068402102F094FA09E00498A6
:1048000000680399096802F08DFA02E00120029025
:10481000FFE7049901200864FFE704990020C863BA
:10482000FFE702980590FFE7059806B080BD0000FD
:1048300081B0009001B0704780B584B003900398B8
:104840000068C068029003980068006901909DF8B4
:1048500004008007002824D5FFE79DF808008007A2
:1048600000281DD5FFE7039801686FF0020008617A
:1048700003990120C861039800688069800720B10E
:10488000FFE70398FFF7D4FF06E0039800F0E2F893
:10489000039800F0E3F8FFE703990020C861FFE701
:1048A000FFE79DF804004007002825D5FFE79DF8A5
:1048B0000800400700281ED5FFE7039801686FF045
:1048C0000400086103990220C861039800688069A8
:1048D00010F4407F04D0FFE70398FFF7A9FF06E03C
:1048E000039800F0B7F8039800F0B8F8FFE70399D1
:1048F0000020C861FFE7FFE79DF8040000070028DB
:1049000024D5FFE79DF80800000700281DD5FFE724
:10491000039801686FF00800086103990420C861DA
:1049200003980068C069800720B1FFE70398FFF78C
:104930007FFF06E0039800F08DF8039800F08EF8F2
:10494000FFE703990020C861FFE7FFE79DF8040037
:10495000C006002825D5FFE79DF80800C0060028FE
:104960001ED5FFE7039801686FF0100008610399F6
:104970000820C86103980068C06910F4407F04D023
:10498000FFE70398FFF754FF06E0039800F062F892
:10499000039800F063F8FFE703990020C861FFE780
:1049A000FFE79DF80400C00778B1FFE79DF8080015
:1049B000C00748B1FFE7039801686FF00100086184
:1049C000039800F04FF8FFE7FFE79DF804000006AA
:1049D000002810D5FFE79DF808000006002809D53B
:1049E000FFE7039801686FF0800008610398FFF704
:1049F000FBFCFFE7FFE79DF804004006002810D508
:104A0000FFE79DF808004006002809D5FFE7039856
:104A100001686FF040000861039800F03BF8FFE781
:104A2000FFE79DF804008006002810D5FFE79DF8F9
:104A300008008006002809D5FFE7039801686FF099
:104A4000200008610398FFF7D3FCFFE7FFE704B0FD
:104A500080BD000081B0009001B0704781B000902F
:104A600001B0704780B582B0019001984DF2947109
:104A7000C2F2000188420AD1FFE74DF6E831C2F2E6
:104A800000010888013008801AF0FAF9FFE702B047
:104A900080BD000081B0009001B0704782B00190ED
:104AA000ADF8021002B0704780B588B007900020C2
:104AB0000690079800F056F80690069808B9FFE7A8
:104AC0004EE006980138014601910F2843D801991C
:104AD000DFE801F0081641244141413241414141A2
:104AE00041414140FFE700200590079800680068B9
:104AF000059007980068406805900598FFE72BE04F
:104B0000FFE7002004900798006800680490079869
:104B10000068406804900498FFE71DE0FFE700206C
:104B20000390079800680068039007980068406841
:104B300003900398FFE70FE0FFE70020029007983B
:104B40000068006802900798006840680290029828
:104B5000FFE701E000E0FFE7079800684068FFE733
:104B600008B080BD81B000900098C06C01B0704763
:104B700080B592B01190119800680068109011985B
:104B80000068C0680F901198006840690E9000207E
:104B90000D900C90109800F00F000D900D9888B9B2
:104BA000FFE79DF84000800600280AD5FFE79DF842
:104BB0003C008006002804D5FFE7119802F0C2FAF5
:104BC00000E2FFE70D98002800F0C280FFE79DF8A3
:104BD0003800C00738B9FFE7BDF83C0010F4907FFB
:104BE00000F0B680FFE79DF84000C00758B1FFE72E
:104BF0009DF83D00C00730B1FFE71199C86C40F047
:104C00000100C864FFE79DF84000400700280BD56D
:104C1000FFE79DF83800C00730B1FFE71199C86C75
:104C200040F00200C864FFE79DF8400080070028BC
:104C30000BD5FFE79DF83800C00730B1FFE71199A9
:104C4000C86C40F00400C864FFE79DF8400000070E
:104C5000002811D5FFE79DF83C008006002805D408
:104C6000FFE79DF83800C00730B1FFE71199C86C25
:104C700040F00800C864FFE71198C06C002866D0B7
:104C8000FFE79DF84000800600280AD5FFE79DF861
:104C90003C008006002804D5FFE7119802F052FA84
:104CA000FFE7119800684069C0F380100C901198DC
:104CB000C06C0007002804D4FFE70C9800283ED001
:104CC000FFE7119802F0C8F91198006840694006A2
:104CD00000282FD5FFE7FFE7FFE71198006850E8AD
:104CE000050F20F040000B90FFE70B991198026828
:104CF00042E805100028F0D1FFE7FFE71198C06BEC
:104D000098B1FFE71198C16B46F60960C0F6000044
:104D100048651198C06BFDF74DFC28B1FFE711986D
:104D2000C06B416D8847FFE703E01198FFF7BCFEB9
:104D3000FFE703E01198FFF7B7FEFFE706E01198E1
:104D4000FFF7B2FE11990020C864FFE7FFE739E1E1
:104D50001198006B012840F01581FFE79DF8400095
:104D6000C006002840F10E81FFE79DF83C00C00618
:104D7000002840F10781FFE7FFE700200A90119823
:104D8000006800680A901198006840680A900A98C4
:104D9000FFE71198006840694006002840F19980BB
:104DA000FFE71198C06B00684068ADF82600BDF8B9
:104DB0002600002874D0FFE7BDF826001199898DE0
:104DC00088426DDAFFE7BDF826001199C885119871
:104DD000C06BC069B0F5807F57D0FFE7FFE7FFE702
:104DE0001198006850E8030F20F480700890FFE7E6
:104DF00008991198026842E803100028F0D1FFE7F3
:104E0000FFE7FFE7FFE71198006850E8050F20F083
:104E100001000790FFE707991198026842E8051022
:104E20000028F0D1FFE7FFE7FFE7FFE711980068F0
:104E300050E8050F20F040000690FFE70699119812
:104E4000026842E805100028F0D1FFE7FFE711995A
:104E500020208864119900200863FFE7FFE711987C
:104E6000006850E8030F20F010000590FFE7059957
:104E70001198026842E803100028F0D1FFE7FFE72D
:104E80001198C06BFDF72AFBFFE7119902204863D8
:104E90001198818DC28D891A89B2FFF7FFFD17E045
:104EA000BDF826001199898D884210D1FFE711982D
:104EB000C06BC069B0F5807F08D1FFE7119902206F
:104EC00048631198818DFFF7E9FDFFE7FFE7FFE7F2
:104ED00078E01199888DC98D401AADF812001198AB
:104EE000C08D00284DD0FFE7BDF81200002848D043
:104EF000FFE7FFE7FFE71198006850E8030F20F491
:104F000090700390FFE703991198026842E803103C
:104F10000028F0D1FFE7FFE7FFE7FFE711980068FF
:104F200050E8050F20F001000290FFE70299119868
:104F3000026842E805100028F0D1FFE7FFE7119969
:104F400020208864119900200863FFE7FFE711988B
:104F5000006850E8030F20F010000190FFE701996E
:104F60001198026842E803100028F0D1FFE7FFE73C
:104F70001199022048631198BDF81210FFF78EFDB9
:104F8000FFE71FE09DF84000000600280AD5FFE774
:104F90009DF83C000006002804D5FFE7119802F0B8
:104FA000B1FA0FE09DF84000400600280AD5FFE75F
:104FB0009DF83C004006002804D5FFE7119802F058
:104FC00095F8FFE712B080BD80B582B000900098E0
:104FD00018B9FFE7012001903AE00098806908B114
:104FE000FFE700E0FFE70098406C38B9FFE7009961
:104FF00000200864009800F02FF8FFE700992420B3
:10500000486400980168C86820F40050C86000989F
:1050100002F046F900980168086920F490400861A0
:1050200000980168486920F02A00486100980168EA
:10503000C86840F40050C86000990020C864009A15
:1050400020215164009A9164009948630190FFE720
:10505000019802B080BD000080B58CB00B9000209C
:105060000A9009900890079006900B98006841F20A
:105070000001C4F20101884240F09180FFE7FFE7A0
:105080000020059043F64400C4F20200016841F09C
:1050900010010160006800F0100005900598FFE71E
:1050A000FFE70020049043F63000C4F202000168DC
:1050B00041F001010160006800F0010004900498D3
:1050C000FFE74FF4C060069002200790012008908F
:1050D0000320099007200A900020C4F2020006A9CC
:1050E000FDF7DAFD4DF2D460C2F20000039046F203
:1050F000B841C4F2020101604FF0006141604021FB
:1051000081600021C1604FF4806202614161816170
:10511000C16101624162FDF72FFC18B1FFE7FCF7A6
:1051200035FFFFE7FFE70B984DF2D461C2F20001B3
:1051300081630B98C863FFE74DF27060C2F2000014
:10514000029046F24041C4F2020101604FF000615A
:10515000416000218160C1604FF480620261416161
:105160008161C16101624162FDF706FC18B1FFE790
:10517000FCF70CFFFFE7FFE70B984DF27061C2F2FE
:105180000001C1630B98C863FFE72520019005214A
:105190000022FEF74BF80198FEF740F8FFE70CB04D
:1051A00080BD000080B584B002900191ADF802206E
:1051B0000298806C202815D1FFE7019820B1FFE705
:1051C000BDF8020018B9FFE7012003900DE0029935
:1051D0000020086302980199BDF8022002F0FEF851
:1051E000039002E002200390FFE7039804B080BD23
:1051F00080B582B001900198C06B20B1FFE70198A3
:1052000019F07AFEFFE702B080BD000080B582B0E1
:1052100001900198C06B20B1FFE7019819F0AEFE34
:10522000FFE702B080BD000080B58AB0089007910A
:10523000ADF81A200593002002900898406C2028B1
:1052400078D1FFE7079820B1FFE7BDF81A0018B939
:10525000FFE70120099070E008990020C8640899D0
:1052600021204864FDF74EFF0290BDF81A0008990E
:105270008884BDF81A000899C88408988068B0F539
:10528000805F09D1FFE70898006928B9FFE700208F
:1052900004900798039004E007980490002003907E
:1052A000FFE7FFE70898C08C68B3FFE70898029B08
:1052B00005996A4611608021002202F069F930B137
:1052C000FFE70899202048640320099035E00498FE
:1052D00058B9FFE7039800886FF35F2008990968C1
:1052E000486003980230039008E004980078089919
:1052F00009684860049801300490FFE70899C88C59
:105300000138C884CEE70898029B05996A46116067
:105310004021002202F03CF930B1FFE7089920203B
:1053200048640320099008E0089920204864002080
:10533000099002E002200990FFE709980AB080BDB9
:1053400080B586B004900391ADF80A200498406CB3
:10535000202865D1FFE7039820B1FFE7BDF80A00D8
:1053600018B9FFE7012005905DE0039804990862F1
:10537000BDF80A0004998884BDF80A000499C8841D
:1053800004990020C864049A2121516404998A6B0D
:1053900046F6C571C0F60001116404998A6B47F2A4
:1053A0004101C0F60001516404998A6B46F62561FB
:1053B000C0F6000111650499896B486503A8019046
:1053C00004980268806B019909680432BDF80A30BC
:1053D000FDF7CEFB48B1FFE704991020C86404999B
:1053E00020204864012005901DE0049801686FF0BA
:1053F00040000860FFE7FFE70498006850E8050FE9
:1054000040F080000090FFE700990498026842E8AD
:1054100005100028F0D1FFE7FFE70020059002E02B
:1054200002200590FFE7059806B080BD81B000908E
:1054300001B0704781B0009001B07047FFE7FEE710
:1054400081B0009000980068C0B2C00901B07047F8
:1054500082B001908DF803109DF803000199486017
:1054600002B0704780B54DF2BC50C2F2000043F26A
:105470000001C4F202010160FCF7E2FD18B1FFE790
:10548000FCF784FDFFE780BD80B582B04DF2C850C7
:10549000C2F2000001904BF20001C4F2020101606F
:1054A000002141608160C1608162C162016341632A
:1054B000FCF7A4FF18B1FFE7FCF768FDFFE74DF22A
:1054C000C850C2F200000121FCF7FCFD18B1FFE753
:1054D000FCF75CFDFFE702B080BD000080B586B040
:1054E000FFE70020059043F63000C4F20200016897
:1054F00041F480010160006800F480000590059887
:10550000FFE7392000900521029100220392FDF768
:105510008DFE0098FDF782FE0299039A3A200190D1
:10552000FDF784FE0198FDF779FE0299039A462063
:105530000490FDF77BFE0498FDF770FE06B080BD79
:1055400080B598B000201790169015901490139085
:10555000FFE70020129043F63000C4F20200016819
:1055600041F010010160006800F0100012901298E4
:10557000FFE7FFE70020119043F63000C4F202007D
:10558000016841F004010160006800F0040011901E
:105590001198FFE7FFE70020109043F63000C4F2B7
:1055A0000200016841F080010160006800F08000A5
:1055B00010901098FFE7FFE700200F9043F63000AF
:1055C000C4F20200016841F001010160006800F0CE
:1055D00001000F900F98FFE7FFE700200E9043F6C1
:1055E0003000C4F20200016841F00201016000686D
:1055F00000F002000E900E98FFE7FFE700200D90EC
:1056000043F63000C4F20200016841F00801016075
:10561000006800F008000D900D98FFE741F20000CF
:10562000C4F202000B90112100220992FDF754FDF3
:10563000099A40F60000C4F20200059041F2FF0111
:10564000FDF74AFD099A0020C4F202000390B02140
:105650000191FDF741FD40F60040C4F202000790C1
:105660000F21069101220892FDF736FD089A0B984A
:1056700002210491FDF730FD0899099A0B9808233F
:1056800013931492159113A90C91FDF705FB049A3D
:10569000DDF820C0099B0B980C994FF0100ECDF847
:1056A0004CE0CDF850C015931692FDF7F5FA059829
:1056B000099A0C994FF43053139303230A931493CC
:1056C0001592FDF7E9FA0598089B099A0C994FF095
:1056D000FF0CCDF84CC0149315931692FDF7DCFA2D
:1056E0000398099A0A9B0C9941F60F0CCDF84CC00F
:1056F00014931592FDF7D0FA0398DDF820C0099BAA
:105700000A9A0C99DDF804E0CDF84CE0CDF850C0D1
:1057100015931692FDF7C0FA0398099A0C99402345
:10572000139314921592FDF7B7FA09980A9A0C99F7
:105730004FF2F73313931492159040F20040C4F2E5
:1057400002000290FDF7A8FA049A099B0B980C99A5
:105750004FF4607CCDF84CC014931592FDF79CFA81
:10576000099A0A9B0B980C994FF47C4CCDF84CC0CD
:1057700014931592FDF790FA0298089A099B0C99D8
:105780004FF4406CCDF84CC014931592FDF784FA99
:105790000798099A0A9B0C994FF6F07CCDF84CC0FB
:1057A00014931592FDF778FA049A0598099B0C99C1
:1057B0004FF4407CCDF84CC014931592FDF76CFA71
:1057C0000398049A099B0C994FF4807CCDF84CC047
:1057D00014931592FDF760FA0398089A099B0C99A7
:1057E0004FF4004CCDF84CC014931592FDF754FAC9
:1057F000049A0598089B0C994FF4805CCDF84CC036
:10580000149315931692FDF747FADDF818C0079820
:10581000089B099A0C99CDF84CC0149315931692D5
:10582000FDF73AFADDF820C0099B0A9A0B980C990B
:105830001392CDF850C015931692FDF72DFA18B0BB
:1058400080BD000080B582B04DF23870C2F2000019
:10585000009043F20041C4F2010101604FF48271F3
:105860004160002101918160C160016141614FF49B
:1058700000728261C1610162416281620A21C1627A
:10588000FEF764FA18B1FFE7FCF780FBFFE702B010
:1058900080BD000080B588B000210191079106917C
:1058A00005910491039102914DF29470C2F20000AF
:1058B0004FF08042026042F2273242608160C7228C
:1058C000C26001618161FEF721FE18B1FFE7FCF7BC
:1058D0005DFBFFE74FF4805004904DF29470C2F2EC
:1058E000000004A9FEF7ECFE18B1FFE7FCF74EFB41
:1058F000FFE70020029003904DF29470C2F2000086
:1059000002A9FEF779FD18B1FFE7FCF73FFBFFE7BF
:1059100008B080BD80B519F0BBFA19F0BBFA80BDA4
:1059200080B519F0E1FA80BD80B582B04DF2FC700F
:10593000C2F20000019041F20001C4F201010160D5
:105940004FF41641416000218160C16001610C2269
:1059500042618161C161FFF737FB18B1FFE7FCF7D6
:1059600015FBFFE702B080BDFFE7FEE7FFE7FEE7BC
:1059700088B0079006910592079800F00700049000
:105980000498C0F10700052803D3FFE70420019025
:1059900004E00498C0F107000190FFE7019803902C
:1059A00004980430062803D8FFE70020009003E0A5
:1059B000049803380090FFE7009802900698039936
:1059C000012202FA01F101390840029B9840059931
:1059D0009A40013A1140084308B070470168D1F875
:1059E000A8100847C0EBC00001EB4000017B01F0AC
:1059F0001F010D29704702EB40008088081A70478C
:105A00008046284613F0D4BE4068016809680847FC
:105A10000C460146054631F8040F228810444A8896
:105A2000208060881044608020460DF06FBB00909D
:105A3000484641463A46334607F0D7BE4DF808ED92
:105A40000AF02AFF0168096B5DF808EB0847224657
:105A5000002300910B9980B2CDE901103398039097
:105A6000DDE907010CF03DBBBDF81E00BDF81A10C2
:105A700070472068D0F880102046084704F14C0594
:105A800039460E222846FAF705BE4DF808ED0FF00C
:105A900004FA286800285DF808EB7047206829465A
:105AA000C26E20461047ADF80C0020690831019104
:105AB0006168CDF80E107047BDF81C200A4413B27F
:105AC000BA88024416B2BDF91A20B342704704F1F5
:105AD000400307CA07C31FBD2068297F826B204689
